:020000041000EA
:1000000000B50C4B00219960022159610A49196021
:100010000A490B480160002159600121996001BC27
:10002000002800D0004707480749086003C880F34C
:10003000088808470000001800031F00180200038A
:10004000F40000180001001008ED00E000000000BE
:1000500000000000000000000000000000000000A0
:100060000000000000000000000000000000000090
:100070000000000000000000000000000000000080
:100080000000000000000000000000000000000070
:100090000000000000000000000000000000000060
:1000A0000000000000000000000000000000000050
:1000B0000000000000000000000000000000000040
:1000C0000000000000000000000000000000000030
:1000D0000000000000000000000000000000000020
:1000E0000000000000000000000000000000000010
:1000F000000000000000000000000000EA224C5D4B
:1001000000200420F7010010C3010010C5010010F9
:10011000C1010010C1010010C1010010C101001097
:10012000C1010010C1010010C1010010C701001081
:10013000C1010010C1010010C9010010CB01001065
:10014000CD010010CD010010CD010010CD01001037
:10015000CD010010CD010010CD010010CD01001027
:10016000CD010010CD010010CD010010CD01001017
:10017000CD010010CD010010CD010010CD01001007
:10018000CD010010CD010010CD010010CD010010F7
:10019000CD010010CD010010CD010010CD010010E7
:1001A000CD010010CD010010CD010010CD010010D7
:1001B000CD010010CD010010CD010010CD010010C7
:1001C00000BE00BE00BE00BE00BE00BE00F04BF888
:1001D000103800BEF2EB8871601905108019051007
:1001E0003402001090A31AE700202149086006C8D5
:1001F00081F3088810471F48006800282FD10DA4FC
:100200000ECC002902D000F012F8F9E71A491B4A77
:10021000002000E001C19142FCD1194988471949E9
:1002200088471949884700BEFDE701C901C29A42C3
:10023000FBD3704780190510C0000020941C0020DB
:10024000543505100000042000000420543505102A
:1002500000100420001004200000000070470B482C
:1002600003F04AF80047EFF30580C0B27047000082
:1002700008ED00E0000000D0981C00203837002076
:10028000AD180010B5060010B51900105756000043
:1002900006005250ABB36053005804100600525091
:1002A000861C030210580410060052505422A29DCE
:1002B0001C58041005005250DE65F46854350510D2
:1002C000F8B5C04610B5064C2378002B07D1054B76
:1002D000002B02D0044800E000BF0123237010BDB2
:1002E000981D002000000000884A0410044B10B53F
:1002F000002B03D00349044800E000BF10BDC046F6
:10030000000000009C1D0020884A041070B5040005
:100310000D00012805D0002C02D1074B9D4207D0CB
:1003200070BD054B9942F6D1044805F0DBF9F2E7C0
:10033000024805F0E7F9F3E7FFFF00001034002062
:1003400070B504000D0028280ED81D280CD01828E0
:100350000AD0172808D000F029FA0123A340002D65
:1003600003D0D0221206536270BDD02212069362CF
:10037000FAE770B5D024240604256561052000F055
:1003800017FFA56170BD10B5D0231B0604229A612A
:10039000033A5A6101329A6143B2002B38DAD02312
:1003A0001B06802212025A61430637D5D0231B0652
:1003B0008022D2015A61830636D5D0231B068022C3
:1003C00092015A61C30635D5D0231B068022520103
:1003D0005A61030734D5D0231B06802212015A61CB
:1003E000430733D5D0231B068022D2005A618307EE
:1003F00032D5D0231B06802292005A61C30731D523
:10040000D0231B06802252005A61FFF7B2FF10BDB5
:10041000D0231B06802212029A61C5E7D0231B0657
:100420008022D2019A61C6E7D0231B068022920166
:100430009A61C7E7D0231B06802252019A61C8E760
:10044000D0231B06802212019A61C9E7D0231B0624
:100450008022D2009A61CAE7D0231B068022920034
:100460009A61CBE7D0231B06802252009A61CCE729
:1004700010B5D0231B0604229A61033A9A61013217
:100480009A6143B2002B38DAD0231B068022120275
:100490005A61430637D5D0231B068022D2015A6108
:1004A000830636D5D0231B06802292015A61C306EB
:1004B00035D5D0231B06802252015A61030734D55B
:1004C000D0231B06802212015A61430733D5D02363
:1004D0001B068022D2005A61830732D5D0231B0627
:1004E000802292005A61C30731D5D0231B06802297
:1004F00052005A61FFF73DFF10BDD0231B0680223A
:1005000012029A61C5E7D0231B068022D2019A61AC
:10051000C6E7D0231B06802292019A61C7E7D02349
:100520001B06802252019A61C8E7D0231B06802255
:1005300012019A61C9E7D0231B068022D2009A617A
:10054000CAE7D0231B06802292009A61CBE7D02312
:100550001B06802252009A61CCE710B50C20FFF7F1
:1005600087FF10BD10B5C020FFF782FF10BDF8B5A2
:1005700005000E001700002B19D0002A06D0012A12
:1005800008D08020FFF774FF00240EE08020FFF7E2
:100590006FFFF6E7C020FFF76BFFF2E72020FFF7C1
:1005A000F2FE0620FFF764FF01340E2CF6DD002F6B
:1005B00003D0012F05D000240BE08020FFF758FF67
:1005C000F9E7C020FFF754FFF5E70620FFF750FFDB
:1005D0000134B442F9DB0024002604E02B68185DE6
:1005E000FFF7D1FE01346B689C4207D20F2CF5D97E
:1005F000002EF3D1FFF7B6FF0136EFE7F8BD10B5D7
:10060000D0231B0604229A61033A9A6101329A614F
:100610003020FFF72DFFFFF7ACFE3020FFF728FF5B
:10062000FFF7A7FE3020FFF723FFFFF7A2FE3820D9
:10063000FFF71EFFFFF79DFE0820FFF719FFFFF7EA
:1006400098FE0120FFF714FFFFF793FE0620FFF747
:100650000FFFFFF78EFE10BD70B582B005000E1EB5
:100660000DD0941B01940F2C0ED82868012C14D0A7
:10067000002C14D02200310003F0E2FE0FE0914282
:10068000EFD00B4817F06EFB002201A9280022F0E2
:10069000E9F82860019BAB60E7E733780370019AC3
:1006A0006A602B689B1800221A7002B070BDC046A9
:1006B000884A041000B587B001210020FFF740FEF2
:1006C00001210120FFF73CFE01210220FFF738FE47
:1006D00001210820FFF734FE01210920FFF730FE39
:1006E00001210A20FFF72CFE01210B20FFF728FE35
:1006F00001210C20FFF724FE01210D20FFF720FE31
:1007000001210E20FFF71CFE01210F20FFF718FE2C
:10071000FFF775FF0120FFF7ABFE0E20FFF7A8FEE5
:100720008020FFF7A5FE0F20FFF7A2FE02AB00938B
:100730000D4A11000D3900236846FFF78DFF012394
:10074000002200216846FFF712FF04E0684622F00D
:10075000A7F803F0F7FF684622F0A2F8FFF7FDFEC6
:10076000002007B000BDC046C14A041010B50249C0
:100770000120FFF7CBFD10BDFFFF000010B5830087
:10078000084A944663441C6840226240C0241440D6
:100790008022520113431C60C000034B9C466044FE
:1007A000416010BD04C001400040014010B501236C
:1007B0008340D0221206936293610521FFF7DEFF8A
:1007C00010BD0000EFF3108072B6034B1B68002BC6
:1007D000FBD0BFF35F8F70472C0100D0BFF35F8F5A
:1007E000024B00221A6080F3108870472C0100D061
:1007F000F8B505000C001600FFF7E4FFE308EF185A
:10080000EA5C072121401300CB40DB0707D401231A
:100810008B40DBB213433B70FFF7E0FFF8BD2100D4
:10082000300001F0E9F80000002307E0054A9A18BB
:100830009200BFF35F8F0021116001331F2BF5D9A8
:100840007047C04640000034054A1078431CDBB2B4
:100850001370172B02D9130010221A707047C0466C
:100860001C110020034B1B6802201840431E9841B6
:10087000C0B2704700C0064040BF00200021704752
:1008800070B505000C00080000F0E2FC200000F04C
:10089000C7FD0849200000F007FDFFF7D5FF064B14
:1008A0009C466044800068602C75A400034BE550B2
:1008B00070BDC046950B0010400000340C35002080
:1008C00010B5002922D003681B7B99421ED8174B14
:1008D0009C466144090183689C4661440C684968F0
:1008E000002A19D003681B7B9A4215D883680F48E9
:1008F0008446624412019A1810685368020001206D
:100900008B4201D80ED00020C0B210BD084B094A5E
:100910003921094801F052F8054B064A39210648A9
:1009200001F04CF8A242EFD8EDE7C046FFFFFF0F01
:10093000104B0410944D0410D84A041010B500292F
:100940001ED0037B99421BD84B005B18033B046805
:10095000A4466344002919D0002A1DD0914221D019
:10096000002A25D0047BA24222D8046850008018B7
:10097000033820188170197800291FD11A7010BD12
:10098000104B114A6921114801F018F8104B114A17
:1009900070310E4801F012F80F4B0E4A71210B48CE
:1009A00001F00CF80D4B0B4A7221084801F006F8D3
:1009B000044B054A6921054801F000F841701A709E
:1009C000DDE7C046444B0410004E0410604B041099
:1009D000AC4B0410DC4D0410B84B0410C44B041095
:1009E00070B506000D001400002914D0002A14D0A0
:1009F000806873689847002806D0220029003000DC
:100A0000FFF79CFF280007E02A0021003000FFF7D5
:100A100095FF200000E0100070BD0800FCE700001A
:100A2000F0B583B00500009201930AAB1C780BABC4
:100A30001F78002C26D003685A7B944207D10123EB
:100A4000002B19D1002C3BD1200003B0F0BD002CAD
:100A50000CD01A7B944209D81A6863001B19033B17
:100A6000D3189B78002BEBD00123E9E73E4B3F4A9C
:100A700069213F4800F0A2FF3E4B3F4A62213F48B8
:100A800000F09CFF03689C7B002CDBD012D01A7B0B
:100A900094420FD862001219033A19688C466244D6
:100AA00051789973002900D1D97300239370537042
:100AB0001370C7E72C4B2D4A69212D4800F07EFFAB
:100AC000002C3AD02B681B7B9C4236D82C4BE31869
:100AD0001B01AA6894466344009A1A60019A5A60FE
:100AE000089A9A60099ADA602E68002C2BD030D0D0
:100AF000337B9C422DD863001B19033B326894461C
:100B0000634400229A705A701A70717B2200300080
:100B1000FFF766FF7073844200D095E7287D009A46
:100B2000019B00F009FC061E01D0002F17D00C9B82
:100B3000002B00D188E71E7086E7124B124A39213C
:100B40000E4800F03BFF114B114AA621084800F067
:100B500035FF054B054A6921054800F02FFF28683D
:100B6000210000F027FEE2E7444B0410004E041081
:100B7000604B0410DC4B04100C4E0410D84A0410D7
:100B8000FFFFFF0F104B0410944D0410D44A0410C3
:100B9000F04D0410F0B5DE4657464E464546E0B5EA
:100BA0008BB00990002308938200B24BD6583700CF
:100BB00032E0B14BB14A3D21B14800F0FFFEB14BEC
:100BC000B14A3921B14800F0F9FEB14BB14A89214F
:100BD000AE4800F0F3FEB04BAE4A8D21AB4800F0BA
:100BE000EDFEA84BAD4A3E21A84800F0E7FE2A687A
:100BF0006B68099800F0A0FB00239A4698467B6832
:100C0000BFF35F8F00221A6086F310884346002BE3
:100C100051D1002800D126E100F026FB02000B1E76
:100C2000C7DB00200021069007917868EFF310865B
:100C300072B601680029FCD0BFF35F8F396888461F
:100C40004C7B002C32D0BAD0097B8C42B7D8944967
:100C500065182D01B9688C46654428686968801A52
:100C600099410029C3DC01D10028C0D100214046B0
:100C700000F096FDA042A8D12A686B6806920793FF
:100C8000AB689846EB689A464346002BA3D0002CED
:100C9000A7D03B681B7B9C42A3D8631EFA68D35C39
:100CA00008931B02184338610020A8E700239A46E6
:100CB00098460020A3E7089B1B0223439946514610
:100CC0001800C04705000E007A68EFF3108B72B66B
:100CD000136859424B41D9B2002BF9D1BFF35F8F52
:100CE000002E26DB002E52DD3B69002B53D04B45F6
:100CF00072D100F0B9FA02000B1E73DB010018007C
:100D000052197341984202D804D1914202D901226A
:100D10005242D317002B6BDB002104910131039168
:100D2000029451460191414600913800FFF778FE48
:100D300049E03B69002BD5D04B451CD1069A079B57
:100D400010001900521BB341994202D804D19042BD
:100D500002D901225242D317002B12DB0021049149
:100D600001310391029451460191414600913800AE
:100D7000FFF756FE27E04B4B464A9C21434800F0C4
:100D80001DFE3D4B3D4A3D213D4800F017FE002E23
:100D900001D1002DA8D13A68002C45D0537B9C424C
:100DA0002CD1012100293FD1D37B002B42D1D47318
:100DB000002C52D03B681B7B9C424ED8FA68013C09
:100DC000135D0133135500233B617A68BFF35F8FD6
:100DD00013608BF310881FE7324B2E4A9F212B485C
:100DE00000F0ECFD244B254A3D21254800F0E6FDAE
:100DF000214B224A3D21224800F0E0FD002C0DD07D
:100E0000137B9C420AD863001B19033B106884467D
:100E100063449B78002BC5D00121C3E7224B234AB2
:100E20006921234800F0CAFD224B234AF7212048BC
:100E300000F0C4FD002B0AD0117B8B4207D859006B
:100E4000CB18033B11688C4663445C70AFE7164BCC
:100E5000164A6921164800F0B1FD0A4B0F4A3E219F
:100E60000A4800F0ABFD0BB0F0BCBB46B246A94649
:100E7000A046F0BD0C350020044C0410604D041059
:100E8000204C0410104B0410944D0410D84A041048
:100E9000684C0410784D0410804C0410B84D0410B8
:100EA000FFFFFF0F8C4C0410444B0410004E041045
:100EB000604B0410C84C0410CC4D041010B5084B06
:100EC0005B68002B00D010BD054C2300054A1021A3
:100ED000206800F085FB03212000FFF7D1FCF2E73A
:100EE00020110020C108001010B5064B5B68002BD4
:100EF00001D0044810BD044B044A5921044800F0B5
:100F00005DFDC04620110020EC4C0410A04D0410E3
:100F1000D84A0410F0B5DE4657464E464546E0B581
:100F20008BB0804616001F00149B9A46159B99466D
:100F300016AB1B789B461F2302AA944663440022EB
:100F40001A7032E0002809D042461268127B9042A3
:100F500004D8421E4146C9688A5C48E0434B444A73
:100F60003E21444800F02AFD0798002B75D05B46CF
:100F7000002B72D04946D04704000D0003000B43FC
:100F800000D171E0002946DB00F06EF906000F1E6B
:100F900055DB36196F41B94202D804D1B04202D9AB
:100FA00001267642F717002F4FDB43465A68EFF3CE
:100FB000108472B6136859424B41D9B20791002B85
:100FC000F8D1BFF35F8F1F3302AA944663440493A2
:100FD0000023039302934B46019353460093320040
:100FE0003B004046FFF71CFD031EABD1020041460B
:100FF0004968BFF35F8F00250D6084F31088002BD4
:1010000029D01F2302A98C4663441B78002BABD147
:1010100012021043A9E732003B00361BAF41BB422E
:1010200002D804D1B24202D901267642F717002F26
:10103000BBDA114B114A3D21114800F0BFFC0E4BA9
:101040000E4A3D210E4800F0B9FC0B4B0B4A3D21E6
:101050000B4800F0B3FC012040420BB0F0BCBB4693
:10106000B246A946A046F0BD0798F6E7104B04101B
:10107000B84D0410D84A0410044C0410604D0410FC
:10108000204C0410F0B587B006000F00FFF7EBF816
:1010900000281FD106246442E517A4197D41BD42F2
:1010A00002D803D1B44201D900240025002D14DB5D
:1010B0000494059500F0D8F802000B1E13DBA41A67
:1010C0009D41002D17DC14D03000390000F0D8F815
:1010D00007B0F0BD1A4800F08FFC1A4B1A4A3D21A8
:1010E0001A4800F06BFC174B174A3D21174800F0D7
:1010F00065FC002CE8D0FFF7F7FE00230293019374
:10110000134B0093049A059BFFF704FF002806DAAF
:10111000DAE7002300E00023002BD5D120BF04999B
:10112000059A0C4B5B6A9A42F5D80A48806A884255
:1011300003D29A42EDD00123EEE70123ECE7C0464B
:10114000104D0410044C0410604D0410204C041089
:101150007908001000400540F8B504000D0000F0CB
:1011600083F802000B1E10DB200029008018594173
:101170008B4202D804D1824202D901204042C117D9
:10118000002908DBFFF77EFFF8BD064B064A3D212C
:10119000064800F013FC034B034A3D21034800F0CE
:1011A0000DFCC046044C0410604D0410204C04108B
:1011B00010B5FA2292000023002103F027F8FFF770
:1011C000CBFF10BD70B5EFF305833F2018401038FA
:1011D000EFF3108C72B6194B1B68002BFBD0BFF3DA
:1011E0005F8F012319008140154A5163154A127817
:1011F0001400C440234214D0114B5C6A8300124D8A
:101200005B599C4206D38300104C1B598A430D49FD
:101210000A7007E00A4A031D9B0099589950002361
:1012200000E00023BFF35F8F044A002111608CF3BC
:101230001088002B00D0984770BDC046280100D010
:10124000004005403737002024370020803400203C
:1012500010B50100024A0348FFF7CAFA10BDC046A4
:10126000304E041035370020044B5B6A034A906A05
:101270001900536A9942F9D17047C04600400540B1
:10128000084B5B6A01E0074B5B6A8B42FBD301E0D2
:10129000044B5B6A8B4203D1024B9B6A8342F7D3B8
:1012A0007047C0460040054070B504000D00EFF3E4
:1012B000108672B61B4B1B68002BFBD0BFF35F8FF1
:1012C000002D1CD0200000F0ABFD174B83420BD04B
:1012D0001900200000F0ACFD0121200000F098FD75
:1012E0000123A340114A1360A400114BE550BFF342
:1012F0005F8F0C4B00221A6086F3108870BDA2002D
:101300000B4B0021D1500122A2400A490B78934394
:101310000B700549200000F0B5FD0021200000F011
:1013200077FDE4E7280100D0C511001038600540C2
:101330008034002037370020F0B5DE4600B584B099
:101340000400150001921E000293FFF78DFF039524
:101350008E4202D84ED185424CD9EFF3108B72B633
:10136000274B1B68002BFBD0BFF35F8F254A1778F4
:101370000125A540EBB23B431370234B5D63221D57
:1013800092000199D150A2002049029850501B6A46
:101390002B4212D11C4B1B6C2B4208D00020BFF3F8
:1013A0005F8F174B00221A608BF3108823E0184BD5
:1013B000184AB321184800F001FBFFF755FF8E4291
:1013C00014D802D1039B834210D80E4B1B78BB422A
:1013D0000ED00D4B1D625D631F2004400123A3400E
:1013E0000E4A1360074B1F701E38D8E70020D6E75F
:1013F0000120D4E7012004B080BCBB46F0BDC0464C
:10140000280100D037370020004005402437002055
:10141000544E0410BC4E0410784E041080E200E0DC
:10142000EFF3108C72B60B4B1B68002BFBD0BFF395
:101430005F8F01238340084A136208490A789A4360
:101440000A70BFF35F8F034B00221A608CF3108881
:101450007047C046280100D00040054037370020C3
:10146000024B9C4661448900016070474000003493
:1014700010B50400FFF7E8F901002000FFF7F0FFC6
:10148000FF232371BFF35F8F10BD000010B500294B
:101490001ED0037B99421BD84B005B18033B0468AA
:1014A000A4466344002919D0002A1DD0914221D0BE
:1014B000002A25D0047BA24222D80468500080185C
:1014C000033820188170197800291FD11A7010BDB7
:1014D000104B114A6921114800F070FA104B114A63
:1014E00070310E4800F06AFA0F4B0E4A71210B481A
:1014F00000F064FA0D4B0B4A7221084800F05EFAC6
:10150000044B054A6921054800F058FA41701A70E9
:10151000DDE7C046444B04104C500410604B0410EF
:10152000AC4B041038500410B84B0410C44B0410DA
:1015300070B506000D001400002914D0002A14D044
:10154000806873689847002806D022002900300080
:10155000FFF79CFF280007E02A0021003000FFF77A
:1015600095FF200000E0100070BD0800FCE70000BF
:1015700010B50023437301338373037BC3730123CB
:10158000027B9A4214D9002B0CD0027B934209D8DB
:101590005A00D218033A01688C4662440133DBB228
:1015A0005370EDE70B4B0C4A69210C4800F006FA2A
:1015B000002A09D0924207D8016853009A18033ACA
:1015C0008A180023537010BD024B034A6921034857
:1015D00000F0F4F9444B04104C500410604B04101C
:1015E00010B5017342608360FFF7C2FF10BD0000B9
:1015F00070B50400081E00D170BD002934D0237BD3
:10160000994231D84B005B18033B226894466344EF
:101610005A78002AF0D02DD0237B9A422AD8530042
:101620009B18033B21688C4663445D780021597008
:10163000002825D0237B984222D843001B18033B67
:1016400021688C4663440021597001002000FFF797
:101650006FFF060029002000FFF7CAFF02003100DB
:101660002000FFF765FFC7E7084B094A69210948D1
:1016700000F0A4F9054B064A6921064800F09EF9DE
:10168000024B034A6921034800F098F9444B0410C7
:101690004C500410604B041070B505000C0016008F
:1016A000002928D02DD0037B99422AD84B005B1803
:1016B000033B0268944663445A78002A27D19A78FB
:1016C000002A2AD11978FFF793FF0300002E03D0D8
:1016D000EA7B002A27D1EC73002B37D1002C49D0AC
:1016E0002B7B9C4246D82B6861000C19033C1C19CB
:1016F0000023637070BD224B224A3821224800F03B
:101700005DF9224B224A6921224800F057F9224B09
:101710001C4A3A211C4800F051F9204B194A3B2140
:10172000194800F04BF9002A0AD0297B8A4207D8D1
:1017300051008A18033A29688C4662445470CAE7FB
:10174000124B134A6921134800F038F9002B0BD0D3
:101750002A7B934208D843001B18033B2A6894460F
:10176000634400229A70B9E7084B094A6921094885
:1017700000F024F9054B064A6921064800F01EF9DD
:10178000584F041024500410604F0410444B0410B0
:101790004C500410604B0410984F0410C04F0410BC
:1017A00070B504000A00457B2900FFF775FF6073E0
:1017B000280070BD70B50400002967D0437B8B42C0
:1017C0000ED0002911D0037B99420ED84B005B1834
:1017D000033B0268D0188378002B0CD1002056E020
:1017E0000121FFF7DDFF012051E0294B294A692142
:1017F000294800F0E3F8002B20D0227B93421DD82B
:101800005A00D318033B2268D2182568EB5C8B4240
:101810001AD0002B1BD0227B934218D85A00D31821
:10182000033B2268D21853788B4216D0002BF0D19C
:101830001A4B1B4A67211B4800F0C0F8144B154A8D
:101840006921154800F0BAF84378137007E0104B8F
:10185000104A6921104800F0B1F843785370002312
:101860008370437001222000FFF716FF0200617BA6
:10187000814205D02000FFF75BFE6073012006E087
:10188000094B074A6D21074800F098F8002070BD09
:10189000444B04104C500410604B0410E44F0410EF
:1018A0000C500410604F0410EC4F041070B5234B23
:1018B000234A1A60234B244A1A60244B9A68224B0D
:1018C0009343FAD1224C01E008CC9847214B9C422B
:1018D000FAD300F01DF91B4B1F4A1A601B4B9B6883
:1018E000DB43DB01FAD11D4B40229A675A671A6726
:1018F000DA661B4C03E02000FFF7BAFD0834194BF1
:101900009C42F8D3184CA168184DC022280002F060
:1019100097FDA560FEF7A7FC002800D000BEFEF7EB
:1019200083FF00F011FCFFF7C9FA114C01E008CC6D
:101930009847104B9C42FAD370BDC04600E000406F
:10194000BFCDFFFF00F00040FE7F3C0000C0004024
:10195000601C0020701C0020FFFFFF0100F0014010
:10196000581C0020601C002000ED00E0000000205A
:10197000701C0020941C002000BEFDE703000A4AF2
:101980001268002A08D0084A1068C318074A9A4209
:1019900006D3054A13607047034A05491160F2E710
:1019A00001204042F7E7C046043500200000042033
:1019B0003837002010B5FFF7DFFF000010B582B008
:1019C0000C001900002A0CD0084B002A0BD0019201
:1019D000009323000200064802F0A8FE0120FFF752
:1019E000CBFF044BF1E7034AF1E7C046585004101F
:1019F00068500410708704100FB400B583B0084815
:101A000002F064FE049B002B07D005A90191180089
:101A100002F06AFE034802F059FE0120FFF7ACFF16
:101A2000985004106C5A0410F8B5D646474680B555
:101A300006000D001700089A934243D3190E1802AE
:101A4000089A002301F0F6FC80467400A419A40053
:101A50002A4B9C4664446368834200D26060331F13
:101A6000DBB29A46012B33D9C0239B01234380224A
:101A700012011A60B300224A9958002905D0506912
:101A800001F092FC01300138FDD17F0122685740FE
:101A9000E022174080235B0123431F605246012A46
:101AA00021D980239B012343802212011A604346DF
:101AB0006360B600124B089AF2500120C0BCBA46CF
:101AC000B046F8BD0F4B104A2E211048FFF776FFA5
:101AD000012DC9D1C0239B01234303221A60A368AF
:101AE000DB07FCD5D1E72168694003220A401A6070
:101AF000A2680123AB401342FAD0D2E70080004035
:101B000090340020A850041000510410BC50041060
:101B100030B583B00C2000F08DF8FEF7A3FE00284E
:101B20000DD0002304E09900334A34488850013333
:101B3000092BF8D9304B324A5A6203B030BD314BD1
:101B400000229A6700F07EF82F4B01221A602D4B7D
:101B50005B6C012BFBD12D4B03221A60294B9B6B35
:101B6000012BFBD1C0239B01294A1360294A136032
:101B7000294B9A68C0239B019343F9D10224009416
:101B80000633264A0121264800F070F80094052308
:101B9000244A0121244800F069F8244B00930022D4
:101BA00002210420FFF740FF214D00952B00002269
:101BB00001210520FFF738FF104C0094230000227C
:101BC00000210720FFF730FF0094230000220021AE
:101BD0000820FFF729FF0A4B009323000022002171
:101BE0000920FFF721FF00952B000022002106208D
:101BF000FFF71AFFA1E7C04690340020006CDC021A
:101C00001BB70000008000403CB0004030B00040F6
:101C100000E0004000F0004000C00040002F685984
:101C20000080024000389C1C00C00240001BB7002E
:101C30004059730780239B000343014AD3627047D6
:101C400000800540064BAA2212011A602F22DA609A
:101C5000044B054A1A60024B5B68002BFBDA7047A5
:101C6000004002400060024000B0FA00F0B5CE46ED
:101C700000B50400894616001D0001235B42436045
:101C8000002383600C2001F08FFB07004B4623608C
:101C900043011B1A9901C91AC900091889013000AA
:101CA00001F082FB0200103A98235B009A4220D890
:101CB0006B1E062B23D8069B013B062B1FD8069BC9
:101CC0009D4222D33209BA4225D3A060221DC023EF
:101CD0009B01134321221A602268002AFCDA2D049A
:101CE000069A16033543E56008221A6080BCB9469F
:101CF000F0BD0C4B0C4A1A210C48FFF75FFE0C4B51
:101D0000094A1D210948FFF759FE0A4B064A2321BB
:101D10000648FFF753FE084B034A27210348FFF705
:101D20004DFEC04610510410EC5104102C5104100B
:101D30006C510410B8510410D0510410074B9B682B
:101D4000103080001950BFF35F8FBFF35F8F044BDB
:101D50000021196082F310887047C04600ED00E052
:101D6000240100D010B5091A04394808090B05D11F
:101D70004005400D044B184380B210BD034B044A8C
:101D80008C210448FFF71AFE00E0FFFFF851041011
:101D9000045404100852041010B5091A04394C08F0
:101DA000090B08D14905490D064A11430180064B2C
:101DB0002343438010BD054B054A94210548FFF796
:101DC000FDFDC04600F0FFFF00F8FFFFF8510410D2
:101DD000D85304100852041001238340034A1068AA
:101DE0001840431E9841C0B27047C04600E100E071
:101DF000002904D0034B1860034B18607047034B55
:101E00001860FBE780E200E000E100E080E100E034
:101E100010B5012383401800FFF7EAFF10BD000052
:101E2000024B9B6810308000C058704700ED00E006
:101E300070B504000D00EFF3108672B60C4B1B68F2
:101E4000002BFBD0BFF35F8F2000FFF7E9FF094BAA
:101E5000984201D0A84205D1320029002000FFF7A6
:101E60006DFF70BD044B054A70210548FFF7A6FDC4
:101E7000240100D0CD010010485204102054041059
:101E800008520410F0B5CE46474680B583B0060030
:101E90000D00EFF3108872B6574B1B68002BFBD078
:101EA000BFF35F8F554B9A6834001034A300D758A6
:101EB000534B9F4207D0AF4200D19BE00197514B5B
:101EC000FB1A2F2B09D9424639003000FFF736FFA5
:101ED00003B0C0BCB946B046F0BD3000FFF77CFF90
:101EE000814600213000FFF793FFBFF35F8FFEF7BD
:101EF000BAF9002801D0844219D10123019C9C43E6
:101F0000230040495B1A5B4148495943090D49B2D6
:101F10000022A368AB4212D00622A256002A0DDB93
:101F200053009B189B002200364CE418F1E7202157
:101F3000354B364AFF313648FFF740FD2200AB42B1
:101F400051D106256557002D39DB6B005B199A00CE
:101F50002C4B9B189A68A260DA79E27106229A5695
:101F6000A2719B795BB2002B10DABD200002A08029
:101F70006B005B199B00234AD318264A117899718C
:101F8000157049463000FFF743FF9CE7201D6B00AA
:101F90005B199B001B4A9B181A1D9B88D90A1C2998
:101FA00007D15B055B15023359005118FFF7DAFEC4
:101FB000DDE7194B194A9A211548FFF7FFFC002865
:101FC0000CD1002A08D0FF239371154B9380114B3D
:101FD0001A78A2711970D4E7094FF8E7201D11494A
:101FE000FFF7DAFECDE7AA210F4B084A490008485F
:101FF000FFF7E4FC024F66E7240100D000ED00E0AB
:10200000CD010010481100205C530410F05304105F
:1020100008520410363700204453041010540410A2
:1020200000BDFFFF8211002080530410AAAA000007
:1020300010B5032304009C43064A94466444226876
:102040001840C000FC3383409A43130081400B4387
:10205000236010BD00E400E070B5040001260643D3
:102060002D4BF31A2F2B28D8FEF7FDF800282BD084
:10207000EFF3108C72B6294B1B68002BFBD0BFF31B
:102080005F8F2300244D5B1B5B412E4D5D432D0D67
:102090006DB2234B9B6880001B58B3421BD00022BB
:1020A000032A32D853009B189B001B49CB189B79FD
:1020B0005BB2AB421FD00132F2E77221194B1A4AD0
:1020C000FF311A48FFF77AFCBA21194B164A49002A
:1020D0001648FFF773FC124B9B68164A1A50164BB2
:1020E0001A78A2711D70BFF35F8F0C4B00221A602B
:1020F0008CF3108870BD08005300991889004118AE
:10210000FF268E710D4A8A80E9E786210C4B064A2C
:10211000FF310648FFF752FC48110020240100D08F
:1021200000ED00E088530410BC5304100852041062
:10213000B0530410CD0100103637002000BDFFFF62
:10214000E44F0410AAAA000010B5002404E0802186
:102150002000FFF76DFF01341F2CF8D910BD9A4203
:1021600000D288547047704710B5002802D00B6821
:102170004968984710BD0100002007E083001B1844
:102180005B00501C08601078C01830380A6813785B
:10219000303BDBB2092BF1D97047F0B5DE4657462C
:1021A0004E464546E0B583B093461F000C9B9A46C9
:1021B0000D9C0E9B99460F9B9B0703D0B8460F00C2
:1021C000060022E00192A34688464E46B946070023
:1021D000B44207D2551C4B4641462020B847013433
:1021E0002A00F5E73D004F465C46019B9B46B14601
:1021F0004646B84637002E0007E0013C551C5346C2
:10220000185D43463900B0472A00002CF5D135004F
:102210003E0047460F9B9B0707D4100003B0F0BC5D
:10222000BB46B246A946A046F0BDB0464E46B946AA
:102230002F005D46531BB342EFD2541C4B46414620
:102240002020B8472200F5E7F0B5CE46474680B5D6
:1022500085B0944698460C9D0D9C0EAB1B78994614
:10226000109A119B129EB7071CD4002B0CD0F707B5
:102270000AD54F46002F02D10C37374204D0013B1C
:1022800002E030272F550134944201D21F2CF8D997
:10229000F70707D59C4205D21F2C03D830272F55AE
:1022A0000134F5E7F70615D5770505D4002C03D0E2
:1022B000944224D09C4222D00F9A102A2BD00F9AFD
:1022C000102A30D00F9A022A35D01F2C02D8302283
:1022D0002A5501341F2C05D84A46002A31D02D2218
:1022E0002A550134039602930194009543466246B1
:1022F000FFF753FF05B0C0BCB946B046F0BD621E43
:10230000012C06D00F9F102F01D01400D4E7023CFF
:10231000D2E71400D0E7B206D1D41F2CCFD8782250
:102320002A550134D1E7B206CCD51F2CCAD8582281
:102330002A550134C9E71F2CC7D860322A55013409
:10234000C3E7720703D52B222A550134CAE73207A7
:10235000C8D520222A550134C4E7F0B5DE465746D9
:102360004E464546E0B593B081468A4608920993A9
:102370001CAB10CB1B789B461E9D219B9846002CC6
:1023800003D1102342469A4390468023DB00464601
:102390001E4042461A4212D0002C22D000260EE0E7
:1023A0003033D9B2771C0AAB99552900200000F0D0
:1023B000FBFFAC4216D31F2F14D83E0004002900A7
:1023C000200000F0F1FFCBB2092BE9D9424692067A
:1023D00005D54121C918C9B20A39C9B2E2E761215C
:1023E000F8E7270043460693209B05931F9B049321
:1023F00003955B46029301970AAB0093099B089AE9
:1024000051464846FFF720FF13B0F0BCBB46B2462A
:10241000A946A046F0BDF0B5DE4657464E464546B5
:10242000E0B595B0089009910A920B931E9E1F9CEF
:1024300020AB1B789B46229B9946239D269B9A4660
:102440003300234303D1103352469A4392468023EC
:10245000DB0057461F4052461A4219D0330023432F
:102460002DD0002714E03033DAB27B1C98460CAB39
:10247000DA554A462B003000210000F0DBFFA54270
:102480001FD819D043461F2B1BD8474606000C0007
:102490004A462B003000210000F0CCFFD3B2092BBC
:1024A000E1D95246920605D54122D218D2B20A3A53
:1024B000D2B2DAE76122F8E7B145E3D901E00023BF
:1024C000984653460693259B0593249B04934B46BD
:1024D00003935B460293434601930CAB00930B9B23
:1024E0000A9A09990898FFF7AFFE15B0F0BCBB46F1
:1024F000B246A946A046F0BDF0B5DE4657464E4668
:102500004546E0B591B083468A460C9298461A9C9F
:1025100008941B9D099522002B002000290001F042
:1025200008FA002800D0E5E001225242D74B2000F3
:10253000290001F0F9F9002800D0DBE00122524225
:10254000D34B2000290001F0D9F9002800D0D1E0B8
:1025500000220023089D2800099E310001F0CEF9D9
:10256000002800D0DDE008980999069007918023A3
:10257000DB001E9A1A400D921E9A1A4201D10623C0
:102580001C930698079904000D000A0006000243F8
:1025900000D1D1E0080D4005400DBE4CA44660447A
:1025A0000A03120BBC4B13431F0001F0D5F9BB4AC1
:1025B000BB4B01F059F9BB4ABB4B01F043F9040096
:1025C0000D000022B94B3000390001F032F9B84A51
:1025D000B84B01F049F902000B002000290001F07E
:1025E00031F901F0D1F9814601F0B6F904000D008E
:1025F000B14AB24B01F038F90022B14B01F022F997
:1026000001F0C2F90600AF4AAF4B2000290001F0EB
:102610002BF904000D00300001F09EF9AB4AAC4BE1
:1026200001F022F902000B002000290001F001F95D
:1026300004000D0002000B0001F016F90A900B9146
:10264000A44BF31800261F0522002B0020002900B0
:1026500001F0F8F80E900F9122002B00002080214D
:10266000C90501F0E6F804000D0000229A4B0A9813
:102670000B9901F0F0F80022984B01F0E3F802000A
:102680000B000A980B9901F0E6F80022944B01F038
:10269000D9F802000B000A980B9901F0DCF802004F
:1026A0000B002000290001F0CDF802000B000E986D
:1026B0000F9901F0D0F80022774B01F0C3F83200F7
:1026C0003B0001F0D1F806000F0004000D00069A4F
:1026D000079B01F029F9002830D001235B429C467A
:1026E000E14400227D4B3000390001F0B4F80400D1
:1026F0000D0023E01E9B04931D9B03931C9B0293E0
:10270000089A099B0092019343460C9A51465846F9
:1027100000F0FCF811B0F0BCBB46B246A946A0469A
:10272000F0BD0023002406930794069580231B0622
:102730009C46664407961AE7002399464B46633346
:10274000C62B1ED804261E9B1B0526D52B00234313
:102750000FD0644A644B0698079901F0DDF8002811
:1027600079D00022614B0698079901F0C7F800283C
:1027700071D01C9B4B4506DD4A46981A431E1C939C
:1027800003E00526DFE700231C938023DB001E9A6D
:102790001A431E920026002399461D9B9E4264D236
:1027A0009F1B02231E9A1A400A921E9A134202D0BD
:1027B000002E00D000274B46002B07D022002B0014
:1027C0000698079901F047F8069007910022002328
:1027D0000898099901F092F8002848D1444B1E9AB4
:1027E0001340049303971C9B0293069B079C009342
:1027F000019443460C9A5146584600F087F8002E43
:1028000000D187E71E9B9B063DD54525441C4346CA
:10281000020051462800D8474B46DA179B18534010
:1028200005220592013E0496002203920A3202928A
:102830004A46D00F01900093434622005146584625
:10284000FFF78BFD0A9B002B00D163E702005F4678
:102850000C9E1D9D54E01C9B002B9ED00D9B002BBD
:102860009BD01C9B013B1C9397E7002799E7069C94
:10287000079D2200290080200006844661440B0049
:1028800006920793AAE76525C0E7C046FFFFEF7FE2
:10289000FFFFEFFF01FCFFFF0000F03FFB799F50BF
:1028A0001344D33FB3C8608B288AC63F0000F83F6B
:1028B00061436F63A787D23F71A379094F930A40A1
:1028C0000000E03F1655B5BBB16B0240EF39FAFE90
:1028D000422EE63FFF03000000002C400000244091
:1028E000000018402D431CEBE2361A3F80842E4135
:1028F000FFF7FFFF541C434651462020B8472200F3
:10290000931BAB42F6D3100004E7C046F0B5DE4699
:1029100057464E464546E0B595B00690079193461A
:102920009946209F1E9A1F9B1000190001F001F884
:10293000002831D101225242BF4B1E981F9900F04E
:10294000DDFF002837D101225242BC4B1E981F994F
:1029500000F0EAFF00283DD10022B94B1E981F99D4
:1029600000F0E2FF002850D10022B64B1E981F99BC
:1029700000F0C4FF002848D1002200231E981F99B0
:1029800000F0BCFF002850D100239846229B5B0535
:1029900000D4B6E0002458E0229B0393219B0293CD
:1029A00003230193A84B00934B465A460799069878
:1029B000FFF7F3FB0EE1229B0393219B0293042379
:1029C0000193A24B00934B465A4607990698FFF78E
:1029D000E4FBFFE00423229A1A4022990B4210D014
:1029E0009B4B002A0FD00422229903912199029136
:1029F000019200934B465A4607990698FFF7CDFB84
:102A0000E8E0944BEDE70322EEE7229B0493219B41
:102A1000039302971E9B1F9C009301944B465A46BA
:102A200007990698FFF768FDD4E01E9A1F9B0020C7
:102A3000002100F0FEFE1E901F9101239846A5E79D
:102A40000CAB30221A55013F01341F2C01D8092F3D
:102A5000F6D81E981F9900F097FF050000F07CFF44
:102A600002000B001E981F9900F0E3FEFA007A4B5B
:102A70009B181A685B680A920B9300F0F5FE0890A9
:102A8000099100F0A5FF060000F062FF02000B00B4
:102A90000898099900F0CDFE0890099100226F4B2B
:102AA00000F042FF00282ED00136300000F050FF29
:102AB00002000B000A980B9900F026FF002801D0B5
:102AC00001350026002F2CD1280000F045FF020020
:102AD0000B001E981F9900F0ACFE06000F000022AC
:102AE0005E4B00F00BFF002846D100225B4B30000C
:102AF000390000F019FF00283ED1EB073CD5013525
:102B00003AE0062746E70022544B0898099900F05E
:102B1000F5FE0028D6D1002E01D0F307D2D501361C
:102B2000D0E7AA461F2C11D8013F0A21300000F03F
:102B30003BFC651C30310CAB19550A21300000F00C
:102B400033FC092E0ED906002C00EBE755461F2C4E
:102B50000CD87B1E002F09D00CAA302111551F0064
:102B60000134F4E72B0055461C00F0E71F2C03D876
:102B70000CAB2E221A5501341F2C10D80A21280024
:102B800000F0E6FB661C30310CAB19550A21280019
:102B900000F0DEFB051E01D03400EDE73400032316
:102BA000229A1340012B1CD01F2C06D84346002B21
:102BB00032D00CAB2D221A550134229B0393219B5A
:102BC000029301940CAB00934B465A460799069822
:102BD000FFF7E3FA15B0F0BCBB46B246A946A046E3
:102BE000F0BD219B002B13D04346002B02D10C33A8
:102BF00013420FD0219B013B2193190003E00CAB42
:102C000030221A5501348C42CED21F2CF7D9CBE793
:102C10002199F8E72199F6E7229B5B0704D50CABD5
:102C20002B221A550134C8E7229B1B07C5D50CABD4
:102C300020221A550134C0E7FFFFEFFFFFFFEF7FAF
:102C400065CDCD4165CDCDC1485404104C54041020
:102C5000405404103C540410385604100000E03F67
:102C6000F0B5DE4657464E464546E0B593B082463F
:102C70008B4690461193002900D1EBE20027554680
:102C8000119B1878002800D1E7E2252809D07C1C88
:102C900043463A005946A847119B01331193270038
:102CA000EEE7013311930024119A11780B00203BB9
:102CB000D8B2102803D88300D048C3589F460B00D1
:102CC000303BDBB2092B2CD92A292FD000230A93C1
:102CD000119B1A782E2A39D000239A46119A13781C
:102CE000683BD9B2122976D88B00C549CB589F468C
:102CF00001231C4301321192D6E702231C43013207
:102D00001192D1E704231C4301321192CCE708232E
:102D10001C4301321192C7E710231C430132119268
:102D2000C2E711A8FFF727FA0A90D1E71C9B1A1DEA
:102D30001C921868002804DB0A90119B0133119340
:102D4000C6E702231C4343420A93F6E78022D200DF
:102D500014435A1C11925A781300303BDBB2092BF2
:102D600004D92A2A07D000239A46B7E711A8FFF70B
:102D700002FA8246B2E71C9B1A1D1C9218680028B2
:102D800004DB8246119B01331193A7E70020F8E78B
:102D900080235B002343511C119152786C2A01D08F
:102DA0001C0018E0C0239B001C430131119112E06C
:102DB00080232343511C11915278682A01D01C00B2
:102DC00009E0C0231C430131119104E080235B0022
:102DD0001C4301321192119B18780300253BDAB293
:102DE000532A00D92CE29300864AD3589F46802369
:102DF0009B001C4301321192EDE780235B001C43D2
:102E000001321192E7E7782809D0582838D06F2886
:102E100038D0622838D010239C430A2600E01026C0
:102E2000582833D0692803D0642801D00C22944359
:102E3000630501D50122944369282AD0642828D04B
:102E4000A30500D59FE0E30500D5B8E0630600D4F4
:102E5000CAE01C9A111D1C911168FF220A400594BA
:102E60000A9B049353460393029600230193009216
:102E700043463A0059462800FFF76FFA070027E05B
:102E80001026CDE70826CBE70226C9E72022144307
:102E9000C8E7A30520D4E30550D4630666D51C9A81
:102EA000111D1C911168FF220A40D317D1185940F7
:102EB00005940A9B0493534603930296D20F019202
:102EC000009143463A0059462800FFF746FA0700AA
:102ED000119B01331193D3E61C9BDA1D07218A4312
:102EE000110008311C91116853689C46DB170C9344
:102EF0000D930C9A0D9B100048400E906246534073
:102F00000F930E980F990C9A0D9B801A99410E9071
:102F10000F9108940A9B0793534606930496002347
:102F200005936346DA0F02920090019143463A00FE
:102F300059462800FFF76FFA0700C9E71C9A111DD0
:102F40001C911268D317D118594005940A9B049319
:102F5000534603930296D20F0192009143463A00E2
:102F600059462800FFF7F9F90700B1E7230605D510
:102F70001C9A111D1C910023D25E96E71C9A111D0C
:102F80001C91126891E71C9BDA1D07218A431100EE
:102F900008311C9108940A9B0793534606930496A4
:102FA00000230593029313685468009301944346E9
:102FB0003A0059462800FFF72EFA070088E71C9AC6
:102FC000111D1C9105940A9B04935346039302968A
:102FD000002301931368009343463A0059462800A2
:102FE000FFF7BBF9070073E723060DD51C9A111DE7
:102FF0001C9112681204120C31E7C046545404109C
:1030000098540410E45404101C9A111D1C91126869
:1030100025E746281AD01C9B0733072293431A0042
:1030200008321C9204940A9A0392524602925C68F7
:103030001B680093019443463A0059462800FFF765
:1030400065FC0700119B0133119319E620231C43F3
:10305000E1E7672801D0472802D180231B011C43E8
:10306000452801D0472801D120231C431C9B07334E
:10307000072293431A0008321C9204940A9A03927E
:10308000524602925C681B680093019443463A00E2
:1030900059462800FFF730FA0700119B01331193BE
:1030A000EEE502231A002240924623421FD001245B
:1030B0001C9B1A1D1C927A1C9146187843463A00B4
:1030C0005946A8475346002B16D1119B0133119343
:1030D0004F46D5E5561C434659462020B8472300A5
:1030E00032005C1C9D42F5D83D001700E0E701234B
:1030F0003A002F000A9DF4E74A46A9460A9D06E0D9
:10310000571C434659462020C84734003A00661CE5
:10311000A542F5D84D469146D7E71C9B1A1D1C9237
:103120001B6899465346002B00D1013B4E4601E0F7
:10313000013613003278002A02D05A1E002BF7D134
:103140004B46F21A10928023DB0026001E401C42E0
:1031500003D0524501D95346109302231A0022404E
:103160000B92234205D03A0037004C46A9465546FB
:1031700020E03A00109B5F46B3462E0006E0551C47
:10318000434639002020B04723002A005C1C0A99DE
:103190009942F4D835005E46BB46109437004C4641
:1031A000A946554606E01D000134561C43465946C3
:1031B000C84732002078002804D0002FF4D06B1EBE
:1031C000002DF0D117004D460B9B002B03D1119B16
:1031D0000133119354E50A9F109B06E0561C4346A9
:1031E00059462020A847230032005C1C9F42F5D896
:1031F0001700ECE721231C431C9B1A1D1C921B6823
:1032000000930594082304935346039310230293D9
:103210000023019343463A0059462800FFF79DF8E2
:103220000700119B013311932AE57C1C43463A00A9
:1032300059462520A847119B0133119327001FE50C
:103240007C1C43463A005946A847119B0133119311
:10325000270015E50A4B9A4610E5AA46474502D3D2
:1032600043465A1E00E03A00434659460020D047E4
:10327000380013B0F0BCBB46B246A946A046F0BD2C
:10328000672100100EB410B585B0010007AC08CC62
:1032900003940122009452420348FFF7E1FC05B079
:1032A00010BC08BC03B018475F21001000B583B004
:1032B000009313000A0001000248FFF7D1FC03B09D
:1032C00000BDC0465F21001000B585B0029003919B
:1032D0000121009313004A4202A90248FFF7C0FCF3
:1032E00005B000BD6921001001480421014B1847B9
:1032F000901100201933001010B5010018231B880D
:1033000014221088984710BD10B5010018231B889F
:1033100016221088984710BDF0B5C64600B50700C4
:103320000E0000250123984600E00135B5420AD27F
:10333000AC003C192068FFF7DFFF20600028F4D1C3
:1033400000239846F1E7404680BCB846F0BD000037
:10335000144A936F9B0815D29066D166002905D058
:10336000FFE7FFE7FFE7516F106F704704B580215B
:103370000906C2175140002800D0C84341F034FB71
:10338000002104BD936F5B08FDD3F0B5946ED56E3C
:10339000576F166FFFF7E0FF9466D566576716679D
:1033A000F0BD0000000000D0134A936F9B0813D2B9
:1033B00010665166002905D0FFE7FFE7FFE7516F70
:1033C000106F704704B5002801D00020C04341F0C1
:1033D0000BFB002104BDC046936F5B08FDD3F0B525
:1033E000946ED56E576F166FFFF7E2FF9466D56641
:1033F00057671667F0BD0000000000D094464E4AA3
:10340000926F9208624601D230E0C046F0B54A4E53
:10341000B56F6D08FCD3346E756E776F366F00F044
:1034200025F89446444A14665566576716676246FF
:10343000F0BDC0469446404A926F9208624601D25F
:1034400058E0C046F0B53C4EB56F6D08FCD3346E05
:10345000756E776F366F00F04DF89446364A1466F5
:103460005566576716676246F0BDC046002B24DBE1
:1034700011D000293EDA00B5C943404200D10131E4
:1034800000F038F8C943404200D10131DB435242D9
:1034900000D1013300BD002AEBD1002801D1002961
:1034A00005D00020C90FC90701D1C043410800B5AC
:1034B00041F072FA0022002300BD00B500290ADBAA
:1034C000DB43524200D1013300F014F8C9434042BB
:1034D00000D1013100BDC943404200D10131DB437D
:1034E000524200D1013300F005F8DB43524200D1D3
:1034F000013300BD002923D1002B18D1002A0CD0A4
:10350000BC460D4F38667A6600210023FFE7FFE7CF
:10351000FFE77A6F386F67467047002801D0074889
:10352000010000B541F038FA0022002300BD02007E
:103530000B00002000217047000000D0FFFFFFFFBC
:10354000002B00D0BDE0130C26D1002AE7D080B4B8
:10355000104F39667A66FFE7FFE730B4040C7B6FE3
:10356000396F1B0423433B66FFE7FFE7FFE7C046D5
:1035700084B27B6F3D6F1B0423433B66FFE7FFE78D
:10358000C04600232C042D0C7A6F386F0019694156
:10359000B0BC7047000000D0F0B594460025140E72
:1035A00001D112020835140F01D112010435940F14
:1035B00001D192000235D40F01D152000135D40B54
:1035C0000134254F7C66254C3C660E0C93B2FFE718
:1035D000FFE7FFE73C6F6643360C7703BE46734355
:1035E000DF0B5B04C01AB941130C7343DB18C91A13
:1035F000CE086643360CB64493B273431F0F1B01CB
:10360000C01AB941130C73431F0B1B05C01AB941F3
:10361000860D8F023E436643360C092D24DB520A89
:103620007243801A7703460A6643360C16235B1BE7
:10363000DE40DF40BF1964466643821B7046043596
:1036400006330100D940A840C01900D30131A2427D
:1036500006D20023F0BD0000000000D0FFFFFFFFF6
:10366000121B0130F3D3F1E709277F1BFE406446AC
:10367000A2B27243801A00D20139220C7243130C99
:103680001204821A99410B00704604351337010069
:10369000F940A840801900D30131002B02D1A24289
:1036A0000AD2F0BD013000D30131121BFAD2013B26
:1036B000F8D1A24200D2F0BD013000D30131121B7B
:1036C000F7E7F0B51C0C00D080E00CB400251C0A14
:1036D00004D11B02160E3343120208351C0B04D111
:1036E0001B01160F3343120104359C0B04D19B00C0
:1036F000960F334392000235DC0B02D192185B41E6
:1037000001351C00971864410134464F7C66464CD5
:103710003C660E0CFFE7FFE7FFE7C0463C6F6643E1
:10372000360C7703BE4697B27743C01B00D20139EF
:10373000C01B00D201399FB27743C91BC91B170CAC
:1037400077437E04FF0B801BB941CE086643360CDD
:103750000C2D33DBB644120B1F053A431B0B97B2FB
:103760007743C01B00D201399FB27743C91B170CA6
:1037700077433E043F0C801BB941860D8F023E43C8
:10378000664329277F1BFE400C3D7746AF40BF199B
:1037900030BCA2B2ABB272437343801A9941220C7F
:1037A0007243130C1204801A994102000B00013776
:1037B000001BA941F9D2781E0021F0BD0C277F1B08
:1037C000FE4077467F0BAF40FF19E0E700245D1C09
:1037D00007D0144F7D663966FFE7FFE7FFE7FFE795
:1037E0003C6F95B29EB265436643401BB141150CD8
:1037F0001E0C6543664336042F0C3E432D04401BCC
:10380000B141994204D202000B0020000021F0BD1A
:1038100001D19042F7D3801A994101349942F2D3F1
:10382000F6E70000000000D0FFFFFFFF48404140E6
:10383000484018B4114B5B68FC46019308BD04DF97
:10384000633B001018B40D4B1B68FC46019308BD88
:1038500000DF6D3B001018B4084BDB68FC46019399
:1038600008BD0CDF253E001018B4044B9B68FC46D5
:10387000019308BD08DFC93C00100000203500207E
:10388000FFB550404240504059404B40594000E045
:10389000FFB5154F4C00640D03D0BC4204D10C039E
:1038A00014D80020090D09055C00640D03D0BC424A
:1038B00004D11C030AD800221B0D1B0501264B4016
:1038C00009D44B4003D58B4200D18242FFBD9942BF
:1038D000FCD19042FFBD0B43DB1803431343F5D0EB
:1038E000C9434918FFBD0000FF07000000B5FFF7FE
:1038F000CFFF01D0002000BD012000BD00B5FFF7C3
:10390000C7FF804100BDC04600B5FFF7C1FF01D928
:10391000002000BD012000BD00B5FFF7B1FF01D9B7
:10392000002000BD012000BD00B5FFF7A9FF8041C8
:1039300000BD012040054A00121804D85A00121890
:1039400001D8002070470120704700207047000018
:103950000021002805D17047C1174840401AFAD00D
:10396000C90713B5064B1B6898470CBC441CA24002
:103970001005120B0349091B09051943114310BD1A
:10398000203600201F04000010B54C00620D80237B
:10399000D218DB00D21A5B057E2A10DD9E3A13DABC
:1039A000CC170903490819435242D140640001343D
:1039B0001532202A05DAD0400843604310BD0020AC
:1039C00010BD0846604310BDC80FC018013810BDB7
:1039D00018B4044B5B6AFC46019308BD24DF5140D8
:1039E000001000002035002018B4044BDB6DFC46AD
:1039F000019308BD5CDF5941001000002035002014
:103A0000C94211D300B549004908002200F018F856
:103A1000002904D4002240428A41114600BD802181
:103A20000906002000BD000018B4044BDB6EFC4604
:103A3000019308BD6CDF5F400010000020350020BE
:103A400018B4044B9B6FFC46019308BD78DF7B40A4
:103A5000001000002035002018B4044BDB6FFC463A
:103A6000019308BD7CDFE5400010000020350020F8
:103A700070B513231C78012C0FD0012C0FDC022C05
:103A800002DC1D4A1D4B9A6470BD99001A481B4AFE
:103A9000885001331F2BF8D9EFE70023FAE71848C5
:103AA000FFF732FC05001748FFF72EFC02380378B9
:103AB0009B007F2B19DD80222900104800F0C0FCFC
:103AC000022CDCD1104B1A88B5231B029A4209D173
:103AD0000E4B1A880E4B9A4204D10E4B1A880E4B8D
:103AE0009A42CCD00020FDF787FF0C4B0C4A3021C6
:103AF0000C48FDF763FFC046293B0010203500202D
:103B0000534400005346000054380000D8380000E9
:103B1000494600009C3800005946000088560410B1
:103B200030570410E856041007B56046002800D14D
:103B300000BE01880A0A0230DF2AFAD1C9B282081F
:103B400004D3028840880004104300E00068024A61
:103B50005050039007BD0000203500200FB403BC77
:103B60000CBCF0B50124E407634000E0F0B50C0D97
:103B7000CF0F661E3605891B640503D3C943404237
:103B800000D30131640D03D0661CF60A07D0E41B94
:103B900000207F00791C89078912803C24031D0DB9
:103BA000DF0F6E1E36059B1B6D0503D3DB435242B0
:103BB00000D301336D0D03D06E1CF60A07D0ED1B48
:103BC00000227F007B1C9B079B12803D2D032F1B37
:103BD000661B58D4A446202E46DA20371400BC4079
:103BE0001D00BD40F24033412A4380185941CB0F9C
:103BF00005D0C943C043002264425041514162464E
:103C00004D0D28D10D0D07D100281FD0241940419A
:103C10004941013A0D0DF9D0640006D3013000D3BB
:103C20000131002C01D140084000013A0BD4941C12
:103C3000E40A04D112051144DB071944F0BDD90789
:103C4000204B194300E0D9070020F0BD0029DDD149
:103C5000002CDBD1F0BD0132C6074008CD07284358
:103C60004908002EE1D0D9E73C2E29DA203E403722
:103C70001400BC4000D00124F24014431A00BB40A1
:103C80001C43D317ACE7AC46202F08DA20360400DB
:103C9000B4400D00B540F84039412843A5E73C2F1A
:103CA0000CDA203F40360400B44000D00124F84034
:103CB00004430800B1400C43C117EAE710001900A3
:103CC000002494E70000F07FF0B50C0D661E360569
:103CD000891BE60A6405640D02D0651CED0A04D058
:103CE000002001210905803C2403A4461C0D671E09
:103CF0003F05DB1BE70A6405640D02D0651CED0A75
:103D000004D0002201231B05803C24037740644437
:103D100097B484B296B27443070C7E43150C6F437C
:103D200080B26843361802D3012000043F183004E3
:103D3000350C00197D41844688B29AB250430C0C70
:103D400062431F0C7C438EB27E43921902D301263C
:103D50003604A4191604170C3618674101BC81B249
:103D60009AB25143040C62431B0C5C4380B258432B
:103D7000121802D30120000424181004130C401858
:103D800063412D185E410020474106BC88B293B2C2
:103D900058430C0C6343120C544389B251435B18D3
:103DA00002D301210904641819041A0C091862418C
:103DB0006D1856410020474118BCF902720D11439D
:103DC000F0026A0D1043ED020A0D03D16D19404156
:103DD0004941013B124E9B1B7600B3420ED26D004F
:103DE00007D30130002671416646354301D14008B2
:103DF00040001B05C918E4072144F0BD0BDA01336C
:103E000006D1013004D101314F0D01D04908F2E74C
:103E1000E1070020F0BD013631050020EBE700008E
:103E2000FF030000F0B51C0D671E3F05DB1BE70A12
:103E30006405640D02D0661CF60A04D0002201233A
:103E40001B05803C2403D0252D060026F6432E6654
:103E50001E096E66CE0FF619B44649004F0D02D00A
:103E60007E1CF60A03D000200021403F3F033E1B8A
:103E7000B600B444013F7F05C91B49082E6F0136C7
:103E800076089C02950D25437543ED137543AD13DC
:103E900001356D10F603761B0CB4CC02450D2C4396
:103EA000A2B2B3B25A43270C7B43350C6F43A4B282
:103EB0006C431B1902D3012424043F191C041D0C5C
:103EC000A4187D4124196D41009A91B2ACB26143AE
:103ED000170C7C432B0C5F4392B25A43A41802D3B5
:103EE00001221204BF182204230C52187B41019CAA
:103EF0006C431B19520ED9010A434401A01A81B226
:103F0000B2B2514303145A43360C734387B277431A
:103F1000D617D21900277E4136049B191704160CB8
:103F20007F185E417316ED18F3010026803375414A
:103F3000A90F06D16400690AE8055B0A184309D293
:103F40002FE00422944480337541A90AA8059B0AF6
:103F5000184326D3404149412404009A019B0D0097
:103F60005543641B4343E41A95B286B27543170C5C
:103F70007E43030C5F4392B25A43B61802D3012228
:103F80001204BF183204330C52197B4152429C4137
:103F9000002C02D40022013051414008CA071043CE
:103FA000490802B06246D7079210084BD218084B56
:103FB0009A4203D212058918C919F0BD0020002ABF
:103FC00001DC3900F0BD01331905F5E7FD03000000
:103FD000FE070000624618CA944600291ADAC01883
:103FE00061415B463B415C46B4405246FA40224345
:103FF00044464D4662416B41904699462B46B3403C
:104000003D41FC401C4352465B46A241AB419246B7
:104010009B467047C01AA1414B463B414C46B440B9
:104020004246FA40224354465D4662416B41924605
:104030009B462B46B3403D41FC401C4342464B4609
:10404000A241AB419046994670470020002170473D
:10405000002200B5203200F010F8080000BD002258
:1040600000B500F00CF8CA179A4200D100BDD84341
:104070000121C907414000BD00220B15E5D410B550
:10408000944600F0A5F81414013400DA0021CB178F
:10409000134C20476244343A0CD40C2A07DA04004B
:1040A0009140904052422032D440214310BDD84329
:1040B000D94310BD203207D40C46944052422032DE
:1040C0001141D040204310BD0800C917203203D44D
:1040D00052422032104110BD1800190010BD0000DE
:1040E000954000104A00520D144BD21A13DDFF2ADE
:1040F0001EDAD205CB0FDB071A43C300400F0903BA
:10410000490A084310435B0001D301D001307047D6
:104110004308FBD2704702D0C80FC00770470A039C
:1041200012130132F8D1420F072AF5D1012200E023
:10413000FF22C80F00028018C005704780030000EE
:1041400000210A00002104E000210A00C11704E058
:104150000022002306E0C0460022CB1758405940F9
:10416000C01A994130B5184CA21A002903D1010098
:1041700010D00020203A4C1512D104D2013A001878
:1041800049414C0DFAD3114CA24204D212058918B0
:10419000DB07C91830BDD243520D00200021F5E7DE
:1041A00003D4013A00184941FBD50B324405C00A3B
:1041B0004D052843C90A640003D0002460416141D1
:1041C000E1E7E0D34408F8E732040000FE0700000E
:1041D0000A0DCC0F531E1B05C91A520503D3C94340
:1041E000404200D30131520D03D0531CDB0A07D0EB
:1041F000121B00206400611C89078912803A120397
:10420000014BD21A70470000FF03000051434343A3
:10421000C9188C46110C83B24B4310B4040C614393
:1042200092B280B2504362431C041B0C001910BCB4
:1042300059411304120CC0185141614470470000E9
:1042400007B548404140484001E0C04607B542003C
:10425000120E03D0FF2A03D1420218D8C00DC005A8
:104260004A00120E03D0FF2A03D14A020FD8C90D0B
:10427000C9050122414005D4414001D5814207BD15
:10428000884207BD0143491801D0C043001807BD4B
:1042900000B5FFF7DBFF01D0002000BD012000BD0D
:1042A00000B5FFF7D3FF01D9002000BD012000BDFC
:1042B00001231B064200D21804D84A00D21801D8A4
:1042C000002070470120704770B513231D782A48DD
:1042D000FFF71AF80400012D11D0012D09DDA31EEE
:1042E0001B789B007F2B40DD80222100234800F0BB
:1042F000A7F82348FFF700F8224B186070BD54223E
:1043000001001E4800F09CF81F4B1A881F4B9A4270
:104310001CD1A7239B011A881D4B9A4216D11D4B15
:104320001A881D4B9A4211D11C4B1A8894239B0169
:104330009A420BD11A4B1A881A4B9A4206D11A4B41
:104340001A681A4B9A4201D1152307E01848FDF765
:1043500053FB99001748094A885001331F2BF8D99D
:10436000144A064B1A62DA61B7E7134B134A42212B
:104370001348FDF723FBC0465346000024360020B7
:104380004C33000020360020EE290000C40F00004E
:10439000C20D0000962B0000C0B50000182B0000D5
:1043A000CC2A000010B50000FC2C000051ED876401
:1043B00070870410C543001044570410C057041000
:1043C0007857041007B56046002800D100BE018868
:1043D0000A0A0230DF2AFAD1C9B2820804D302885D
:1043E00040880004104300E00068024A50500390E7
:1043F00007BD00002436002010B5040033F032F869
:10440000002804D00419034B9C4200D810BD024878
:10441000FDF7F2FA00000420D457041010B533F071
:104420002BF810BD01480421014B1847A0110020B2
:1044300019330010014B1B6818470000A011002021
:10444000014B5B6818470000A0110020F8B5070079
:104450000D001600437C002B02D0002400200CE04D
:1044600003681100280098472DE03B7C10E00221F2
:1044700015483B689847601C0134B44214DA002C9C
:10448000F3DD2B19013B1B780D3B5A425341DBB244
:104490002A5D0A2AF0D1002BEED1A042E7DA211AD8
:1044A00028183B689847E2E7B04203DA311A281827
:1044B0003B689847002E06DDAD19013D2B780D3B7A
:1044C0005A4253413B74F8BD58580410F0B583B0BC
:1044D00007000E000092019324E0A368002B04D093
:1044E000310038009847002823DCE468002C06D00F
:1044F000114B1D68002DF0D0A542F6D1EDE70099D3
:10450000019A0E4B5B6A9A4209D80C48806A88422D
:104510000BD29A4201D0012302E0002300E00023E5
:10452000002B04D1064B1C68E0E70123F8E70120CB
:10453000404203B0F0BDC0460035002000400540B9
:10454000F834002070B505000368002B16D00C4B22
:104550001C6805E0290004C92000FFF777FFE46824
:10456000002C09D02368002BF9D0064B1B68002BC8
:10457000F0D0A342F3D1EDE700232B6070BDC0461D
:10458000F83400200035002070B505000C000B68E1
:10459000802B05D021684B1C23606418257170BDE9
:1045A0000800FFF7CFFFF5E710B582B0D0231B0658
:1045B0001C6801A9064840F027FA002806D1019B93
:1045C000A34203D0024840F04FFA012002B010BDD0
:1045D000581C002010B5024840F0D6F910BDC04666
:1045E000581C0020F0B5C64600B582B006000D008C
:1045F0001700FFF7D9FF80466B1C02D0184B1C68D0
:1046000005E0300034F09AFE0500F7E7E468002C7E
:1046100018D02368002BF9D0124B1B68002B01D057
:10462000A342F3D12A0031002000FFF70FFF002F33
:10463000ECD06B46D91D0A230B7001222000FFF736
:1046400005FFE3E74346002B06D16B1E9D41E8B210
:1046500002B080BCB846F0BDFFF7BCFFF5E7C0462E
:10466000F83400200035002010B5030008001100C8
:10467000002B05D1044B1A685B68FFF727FF10BDBC
:1046800001204042FBE7C046284E041010B50B0045
:104690001400012806D1002221001800FFF7A2FF14
:1046A000200010BD01204042FBE7000010B5064B82
:1046B0001C6801E09847E468002C03D06368002B75
:1046C000F8D1F8E710BDC046F834002070B50500F9
:1046D00034F034FE0400012201002800FFF782FFBD
:1046E000FFF7E4FF200070BD70B5A2B004000E001B
:1046F000FFF75AFF05008422002101A8FFF79AFE68
:104700003300220001A90848FEF7DEFD040001A8DD
:10471000FFF718FFFFF7CAFF002D02D1200022B0DB
:1047200070BDFFF757FFF9E7894500100FB400B5DA
:1047300083B004A901C90191FFF7D6FF03B008BCFB
:1047400004B018471EB400F093F81EBC40F054F9B2
:10475000F0B5C64600B51E0003780C0082B0472BAA
:104760001DD00023284D01932B6828009B68984793
:104770000127002803D0019B01371B6801932368A0
:1047800029001B692000984601AA0123C047002880
:1047900024D10027380002B080BCB846F0BD437871
:1047A0004E2BDED18378552BDBD1C378432BD8D168
:1047B0000379462B1CD00379432BD2D143792B2B81
:1047C000CFD183792B2BCCD1C379012BC9D808D079
:1047D00003005830203B1D680190C5E7019B336002
:1047E000D8E7203800680300783B1D680190BBE7DC
:1047F00043794F2BDFD18379522BDCD1C379002B46
:10480000D9D1024D0193AFE78858041080580410A5
:1048100010B5040000F07CF823002278203B472AE2
:1048200005D08268002A20D18360012010BD627803
:104830004E2AF6D1A278552AF3D1E278432AF0D154
:104840002279432AEDD162792B2AEAD1A2792B2A47
:10485000E7D1E279012AE4D8DA690132DA61012A82
:10486000E3D182689A618360DFE700F0C7FBC0464E
:1048700010B500F04DF88368002B2ED020229A5CF2
:10488000472A04D0002282602033180010BD263A47
:104890009A5C4E2AF6D12C3A9A5C552AF2D1323AD9
:1048A0009A5C432AEED11F3A9A5C432AEAD11E3A17
:1048B0009A5C2B2AE6D1053A9A5C2B2AE2D1043A7B
:1048C0009A5C012ADED8DA69013ADA61002ADBD182
:1048D0009A69826000229A61D6E700F08FFBC04699
:1048E0007047C0467047C046004870475C58041087
:1048F000004870476C58041010B5040004212EF0D5
:10490000EDFF200010BDC04600487047601E00202B
:1049100000487047601E0020F8B5DE464546574601
:104920004E468B46E0B50500502825D00F20284084
:104930000C2800D976E03C4C8000205887465078FF
:104940001678000294780643D07824040006344395
:104950000443101D002C08D070262E40102E00D1CC
:1049600093466DB25C44002D0CDB1C60F0BCBB4672
:10497000B246A946A046F8BD032103328A4310007F
:1049800010C8F2E72468F0E75078167800029478AF
:104990000643D07824040006344304431000083052
:1049A000D8E75478107824020443901CD2E7547856
:1049B00016782402344324042414901CCAE77F216F
:1049C000904600240027894646463178701C4E46A2
:1049D0000E40BE4034434EB280460737002EF3DB14
:1049E0001F2FB7D84906B5D50126BE4076423443BD
:1049F000B2E7002188467F311700002489463E0037
:104A0000317801378A464946564631404646B140DC
:104A10000C4307218C4651464EB23800E044002E2C
:104A2000EDDB97E731F028FA20590410020010B5A9
:104A30000800FF2A15D070231340302B17D004D85C
:104A4000202B07D13FF098FF03E0402B0BD13FF024
:104A5000EBFF10BD202B02D86023134201D031F0B0
:104A60000BFA0020F5E70020502BF2D0F7E73FF0DB
:104A7000B3FFEEE7F8B505000E0014000020002D8E
:104A800002D028003FF0D0FF2060771C3678FF2E40
:104A900029D160603B78781C2375FF2B33D010231D
:104AA000002500217F2623753200037801301A404B
:104AB0008A405BB215430731002BF5DB4519E560F1
:104AC000002500227F2603780130637531000378CA
:104AD0000130194091405BB20D430732002BF5DBEA
:104AE00045192561F8BD29003000FFF79FFF3A0006
:104AF0000100231D3000FFF70FFF07003B78781CF3
:104B00002375FF2BCBD10023E360D9E7F0B5DE4658
:104B1000454657464E460023E0B593B0089303330D
:104B20008B4690460340012B16D0022B0FD14146F5
:104B300058463FF041FF0924002800D108242000F6
:104B400013B0F0BCBB46B246A946A046F0BD002B50
:104B500000D190E031F090F908231A00024003429E
:104B600000D19AE002231A4302920C910CAD00236B
:104B70000C220021404600953FF016FF40463FF0D2
:104B80007BFF03900028D2D02A0003994046FFF70C
:104B900071FF41460600287DFFF748FF0BABA86078
:104BA0000F2200939A460021002340463FF044FF25
:104BB00001220B9B9343013B99462B699E4263D292
:104BC0007F276C7D00212000FFF730FF32000100BD
:104BD00009AB2000FFF7A0FE6C7D0600002120003D
:104BE000FFF724FF320001000AAB2000FFF794FE1C
:104BF0006C7D060000212000FFF718FF53460100DE
:104C000032002000FFF788FE0024002103003A0054
:104C10001B7801301A408A405BB20600144307310A
:104C2000002BF3DB099A2B68944663444B4519D952
:104C3000029BDB072BD500230024049353460D224F
:104C40000093002100234046089D3FF0F5FE5B469F
:104C50000B9A9C621A62039A0624DA62049A5D62D5
:104C60001A636CE70A9A944663444B456FD82B69E4
:104C70008342A6D8DCE7030700D558E701230CAD33
:104C800002935B460C9372E7029B1A42D3D108232E
:104C9000029A134258D000F0B1F90CAD0C6A00230F
:104CA0000D220021404600953FF0C6FE0C9B9C4221
:104CB00002D002230293E4E75B460C220C9300210E
:104CC0000023404600953FF06FFE5B461B6B04934C
:104CD000002B39D05B469C6ADB6A03930BAB9A4688
:104CE0000326002C56DB5B460B9353460022002123
:104CF0000093404600233FF057FE53460122002117
:104D00000093404600230B943FF04EFE53460F2283
:104D100000210093404600233FF08EFE01230B9AB2
:104D200000211340049A404613430B9353460F222D
:104D3000009300233FF038FE0724022E00D0FEE649
:104D40005846FFF765FDFAE658462EF009FF0B9B23
:104D5000002B00D1EBE66A68944663440493002C70
:104D600037D1002B00D1E2E6029BDB0700D5DEE65F
:104D70000823029A134200D122E100240226B2E75E
:104D8000079B5446AB469846B2464D46029BDB070E
:104D900000D553E72A0003994046FFF76BFE4146D2
:104DA000287DFFF743FEE343E9689B00A860C9182C
:104DB0000B68002B05D0002301339A008A58002A83
:104DC000FAD15A46936204230326D06213635163D7
:104DD00089E72A69631E9446049A6344002A00D135
:104DE000A5E6002B00D1E0E002990822080010405F
:104DF00006900A4200D1CDE059463F320A70073290
:104E00004A7007328A70123ACA7003320A71093244
:104E10004A7103328A710022CA7100220592424609
:104E20007F27A9460792002400211A0010783A0033
:104E300002408A400133144342B21D000731002A68
:104E4000F3DB1F2906D84022024203D03F3A8A40B2
:104E500052421443002600213A00187801330240E0
:104E60008A40164342B20731002AF5DB1F2906D8D3
:104E70004023034203D03F3B8B405B421E43002C48
:104E800011D013DC5B46002B02D0069B002B4AD0CE
:104E90004A46E343D2689B009B58002B2CD0002E3F
:104EA0006DD0AB19BFE701230593F8E74B46187D9A
:104EB000FF2862D007230340022B5BD02DD9032BA0
:104EC0002ED0042B00D045E6E20052424B46DB6870
:104ED00049469C46896853466244FFF71DFD0B997D
:104EE000002909D05B46002BD9D00022584608ABD8
:104EF000FFF72EFC0028D2D0079B4D469846029B18
:104F0000DB0700D59AE6069B002B00D1E8E60326D6
:104F1000002C00DBE7E600F07DF8002B00D019E65E
:104F2000A2005242D2E7089B0F9A0B93E3439046AC
:104F30009B00984443461968002943D05B4652467B
:104F4000AB46A2461D004446B046160004E0616828
:104F50000434002900D113E733000022280061182F
:104F6000FFF7F6FB0028F2D02B00B2465D4646461E
:104F70009B4694E762005242A8E70022A6E7079BFF
:104F80009846059B002B00D1D1E5029BDB0700D59D
:104F9000CDE5F2E65A46D1795832012901D008927E
:104FA0003BE7783A1268089237E7029BDB0700D5A7
:104FB000BDE5029A082314001C401A4200D0DCE62A
:104FC000022690E6079B4D469846DFE62EF058FEF7
:104FD00061E6C04670B5804730F04EFF2EF050FEBF
:104FE00030F04AFF0D0004002EF084FE6B1C02D14D
:104FF00020002EF0C5FDFFF7A5FBC046024B10B503
:105000001868FFF7E7FFC046B811002010B58047C9
:10501000FFF7F4FF024B10B51868FFF7F7FFC04623
:10502000B0110020014B18687047C046B81100202D
:10503000014B18687047C046B01100201B2210B504
:105040000249022036F082FEFFF7D8FF54590410BF
:1050500010B50400034B0833036027F0E9FF20007C
:1050600010BDC046A459041010B50400054B083308
:10507000036027F0DDFF20000C212EF02FFC200024
:1050800010BDC046A4590410F0B583B01E00089BA3
:1050900005000F00140093420AD0A868089A03681C
:1050A00000921D6A220033003900A84703B0F0BD0A
:1050B000310000F069F80028EFD00620F6E7C0467E
:1050C000F0B5C64600B50D0084B019000600904644
:1050D0001F0000F059F8041E18D10A9B0C9A934245
:1050E00031D00D9AB0682900036803920C9A02929D
:1050F0000B9A01920A9A0092DC6942463B00A04753
:105100000400200004B080BCB846F0BD0D9B0A9A94
:105110001A6042461A71002D0EDB0A9B00249C4641
:105120000C9B65445D1B6B425D4105236D421D4038
:105130000D9B01359D71E4E70024AB1CE1D10123F7
:105140000D9A9371DDE730000B9900F01DF80028EF
:10515000C7D042460D9B5A71D3E7C046F8B5070049
:105160000C0015001E0027F09FFF002806D1B8682C
:105170002A00036821009F693300B847F8BDC04684
:105180007047C0460020704710B5814211D040687A
:1051900003782A2B0BD049680B782A3B5A4253419B
:1051A000C91833F01FF943425841C0B210BD002066
:1051B000FCE70120FAE7C04670B53D4B82B01A7893
:1051C000002A44D101221A702EF06EFE002834D03D
:1051D0004468002123782A3B5A425341E4180123B2
:1051E0005B4200220193200001AB2EF0F9FA314D11
:1051F00006002B683022DB6801212F4831F088FF40
:10520000019B002B13D02B682000D96831F036F9B0
:105210002B680222DB680121284831F079FF019BCD
:10522000002B02D13000FFF7F9F82EF005FE2B68B5
:105230003000D96831F022F9EAE71E4B2D221B68B5
:105240000121DB681E4831F063FF30F015FE194B79
:105250001D221B680121DB681A4831F059FF30F02C
:105260000BFE0C00012919D12EF00AFD03689B6882
:1052700098472B6806000B222100DB68124831F0AA
:1052800047FF2B683000D96831F0F8F82B680A2006
:10529000D96831F081F82EF02DFDD6E72EF0F0FC24
:1052A0002EF028FDD1E72EF025FDFFF74BFAC04682
:1052B0003437002044120020085A04103C5A0410CD
:1052C000405A0410E8590410705A0410F0B5DE4634
:1052D00057464E4645460122E0B5DF4F00243800D0
:1052E000DE4B83B01A70DE4B7C6098461B681C3026
:1052F0009D68DC4BBC603B60FC603C617C61BC61D8
:105300009B4601F0E7F8D84BD84E9A463B60012304
:105310005B4299467B6243461B683D625D68300094
:105320005B4674603360B460F46034617461B4618E
:105330001C3001F0CFF8534633604B46736243464E
:105340003562CB4D5A4628001B682A60DB686C60CA
:10535000AC60EC602C616C61AC611C30019301F0BD
:10536000B9F8019B52462B624B466B62C14B2A60D7
:105370009946180012F06AFE4B4678221C67043BDF
:105380009C5208329C5004329C5004329C50DC6782
:10539000B94C39002200143248461C605A6012F0A1
:1053A000DBFDB64F380012F051FE3B0000227C219D
:1053B000083B5A5204315A5004315A5004315A5061
:1053C00004315A50AE4938001960143199603A6777
:1053D00031005A6012F0C0FDAA4E300012F036FEC5
:1053E00000227821331F5A5208315A5004315A5042
:1053F00004315A503267B26722001432290030005B
:105400001C60326012F0A8FD9F4E300012F01EFEAC
:1054100000227821331F5A5208315A5004315A5011
:105420001C60043114345A50300029003267B267CE
:10543000346012F091FD80229449954B9201996756
:10544000944B954F1869596702431A6143460024EB
:1054500038001B687C609D68904BBC603B60FC60C2
:105460003C617C61BC611C309B4601F033F88C4B85
:105470008C4E9A463B6001235B4299467B624346D1
:105480001B683D625D6830005B4674603360B460E9
:10549000F46034617461B4611C3001F01BF8534650
:1054A00033604B46736243461B683562DB687E4D52
:1054B000984628005B466C602B60AC60EC602C6109
:1054C0006C61AC611C3001F005F853462B6043461B
:1054D0002B624B466B62754B9846180012F0B6FD76
:1054E00043467C221C675C67043B9C5404329C50FE
:1054F00004329C5004329C5004329C506C4C390055
:105500002200143240461C605A6012F089FD694F37
:10551000380012F09BFD3B0000228021083B5A54CA
:1055200004315A5004315A5004315A5004315A50FF
:10553000614938001960143199603A6731007A671F
:105540005A6012F06DFD5D4E300012F07FFD0022BA
:105550007C21331F5A5404315A5004315A500431BB
:105560005A5004315A5032677267220014322900AF
:1055700030001C60326012F053FD514E300012F0CA
:1055800065FD00227C21331F5A5404315A500431E6
:105590005A5004315A501C60043114345A503000AF
:1055A000290032677267346012F03AFD8022454963
:1055B000454B92019967454B1869596702431A6137
:1055C000434A13680133136003B0F0BCBB46B246D4
:1055D000A946A046F0BD2D4B3E4A48465A6012F0FF
:1055E00073FDFFF7AFF83C4B3C4A30005A6012F0B5
:1055F0006BFDFFF7A7F8354B384A30005A6012F0C0
:1056000063FDFFF79FF8304B344A38009A6012F080
:105610005BFDFFF797F82B4B304A40465A6012F07B
:1056200053FDFFF78FF82E4B2A4A30005A6012F0D4
:105630004BFDFFF787F8174B264A30005A6012F0EF
:1056400043FDFFF77FF8124B224A38009A6012F0B0
:105650003BFDFFF777F8C046542D0020B411002021
:105660004412002088870410107D0410042D0020AF
:105670002C2D00204431002060860410A02F002033
:10568000DC7E04102C300020B83000204031002097
:10569000982F002028300020CC2D0020C88704102F
:1056A000507D04107C2D0020A42D00208433002088
:1056B00090860410D43100200C7F04106432002046
:1056C000F432002080330020CC31002060320020F2
:1056D000642F00202C7E0410F03200203C7E041049
:1056E000B4300020064A10B513680400591C11603C
:1056F000002B01D0200010BDFFF7E8FDFAE7C046FF
:10570000642F0020104A10B513680400591E116060
:10571000022B01D0200010BD0C481CF077FD0C4876
:105720001CF074FD0B481CF071FD0B481CF0AAFD29
:105730000A481CF0A7FD0A481CF0A4FDEAE72EF079
:105740009FFA2EF0D7FAE5E7642F002040310020C1
:1057500028300020B4300020803300206032002048
:10576000F03200207047C04610B504002EF0B2F8A9
:10577000200010BD044A0B6812680360934202D0F7
:105780001A6801321A607047E42E002001607047E9
:1057900010B5064C2068002800D010BD2000002263
:1057A00003492FF01FF82068F7E7C046EC2E0020D1
:1057B0007C5A0410004870477C5A0410416870B548
:1057C0000500002916D08368002B10D00024354E28
:1057D000A2005058002805D043685A1E4260012B91
:1057E00036D0AB680134A342F2D8002902D00800B9
:1057F0002EF078F8E968002916D0AB68002B10D09D
:105800000024284EA2005058002805D043685A1E94
:105810004260012B24D0AB680134A342F2D80029A6
:1058200002D008002EF05EF82B690024002B0DD06A
:105830001859002802D02EF055F82B690434182C82
:10584000F6D1002B02D018002EF04CF8280070BDC5
:1058500003685B68B3420BD12EF03CF86968C0E77F
:1058600003685B68B34206D12EF034F8E968D2E7EA
:1058700098476968B5E79847E968CCE72EF000FAE1
:105880002EF038FA6968ACE72EF0FAF92EF032FA09
:10589000E968C0E74B1C02D12EF072F9FAE7FEF777
:1058A00051FFC046695700100A4B70B51B68056868
:1058B00004009D4204D02B685A1E2A60012B01D09F
:1058C000200070BD2800FFF779FF28002EF002F8B5
:1058D000F6E7C046E42E00200E4A0B68126870B549
:1058E00004000D00934202D0196801311960266846
:1058F000B24204D03268511E3160012A02D0200029
:10590000236070BD3000FFF759FF30002DF0E2FF3B
:105910002B68F4E7E42E0020F0B54E46DE465746ED
:105920004546E0B583B0161E009000D1E6E00C6855
:10593000002C04D1A84B1A68541C1C600C60009AFF
:10594000671E9368013BBB425FD2E31C9A465368D3
:105950009B46A24B9A4500D8DCE001235B42994666
:1059600048462EF019FB009B80469B689C46002B06
:105970000AD0009B596863469A0000234546C858E0
:10598000E85004339342F9D1E24509D953466246BF
:105990009A1A63469800002192004044FEF74AFD9F
:1059A000009D4846EB6801932EF0F6FAAB688146FD
:1059B0009C46002B0AD0009BD96863469A000023BE
:1059C0004D46C858E85004339342F9D1D44509D222
:1059D000534662469A1A6346980000219200484452
:1059E000FEF728FD5346009A9360434653604B46AA
:1059F000D3605B46002B02D058462DF073FF019B0D
:105A0000002B02D018002DF06DFF7368BF0001332A
:105A10007360009B5B689C4667443B68B946984648
:105A2000002B45D06E4A116800293AD06A480EE032
:105A300057683B68002B03D10368013303603B6068
:105A40009C4200D173E091680832002929D00B688C
:105A5000002B03D10368013303600B609C42E7D144
:105A600051680B68002B04D15B4A13680133136043
:105A70000B60013B9C0064442368002B11D0300074
:105A80000DF098FA4368804601334360206843680C
:105A90005A1E4260012B6FD0434623604B461B6861
:105AA0009846434641465B685A1E4A60012B35D0F2
:105AB0004B461E60009B9A68002A1FD0D968494B4C
:105AC00000240027984605E01F60009B9A68013477
:105AD000A24213D9A6008B1918680028F7D0426893
